:04000000C2EF3FF01C
:107F84000001C5EF3FF0000E946E8268D7EC3FF01D
:107F9400000E826ED7EC3FF08268D7EC3FF0000E03
:107FA400826EC7EF3FF000EF00F0000E026E000E8D
:107FB400016E000E046E000E036E034A042A04BE12
:107FC400EDEF3FF0E80E035C030E0458D8A0EDEF8C
:107FD4003FF0EFEF3FF0DFEF3FF0014A022A02BE2D
:107FE400FDEF3FF0E80E015C030E0258D8A0FDEF50
:0C7FF4003FF0FFEF3FF0DBEF3FF012002A
:020000040020DA
:08000000FFFFFFFFFFFFFFFF00
:020000040030CA
:0E000000FF071F1FFF8285FF0FC00FE00F409C
:00000001FF
